{
  "contractName": "Court",
  "abi": [
    {
      "constant": true,
      "inputs": [],
      "name": "owner",
      "outputs": [
        {
          "name": "",
          "type": "address"
        }
      ],
      "payable": false,
      "stateMutability": "view",
      "type": "function"
    },
    {
      "constant": true,
      "inputs": [
        {
          "name": "",
          "type": "uint256"
        }
      ],
      "name": "lawyers",
      "outputs": [
        {
          "name": "name",
          "type": "string"
        },
        {
          "name": "phone",
          "type": "uint256"
        },
        {
          "name": "email",
          "type": "string"
        },
        {
          "name": "addr",
          "type": "address"
        },
        {
          "name": "pubkey",
          "type": "string"
        }
      ],
      "payable": false,
      "stateMutability": "view",
      "type": "function"
    },
    {
      "constant": true,
      "inputs": [
        {
          "name": "",
          "type": "uint256"
        }
      ],
      "name": "judges",
      "outputs": [
        {
          "name": "name",
          "type": "string"
        },
        {
          "name": "phone",
          "type": "uint256"
        },
        {
          "name": "email",
          "type": "string"
        },
        {
          "name": "addr",
          "type": "address"
        },
        {
          "name": "pubkey",
          "type": "string"
        }
      ],
      "payable": false,
      "stateMutability": "view",
      "type": "function"
    },
    {
      "constant": true,
      "inputs": [
        {
          "name": "",
          "type": "uint256"
        }
      ],
      "name": "cases",
      "outputs": [
        {
          "name": "judge",
          "type": "address"
        },
        {
          "name": "lawyer1",
          "type": "address"
        },
        {
          "name": "lawyer2",
          "type": "address"
        },
        {
          "name": "party_1_name",
          "type": "string"
        },
        {
          "name": "party_2_name",
          "type": "string"
        },
        {
          "name": "details",
          "type": "string"
        }
      ],
      "payable": false,
      "stateMutability": "view",
      "type": "function"
    },
    {
      "inputs": [],
      "payable": false,
      "stateMutability": "nonpayable",
      "type": "constructor"
    },
    {
      "anonymous": false,
      "inputs": [
        {
          "indexed": false,
          "name": "_lawyerId",
          "type": "uint256"
        }
      ],
      "name": "lawyerRegistered",
      "type": "event"
    },
    {
      "anonymous": false,
      "inputs": [
        {
          "indexed": false,
          "name": "_judgeId",
          "type": "uint256"
        }
      ],
      "name": "JudgeRegistered",
      "type": "event"
    },
    {
      "anonymous": false,
      "inputs": [
        {
          "indexed": false,
          "name": "_caseId",
          "type": "uint256"
        }
      ],
      "name": "caseCreated",
      "type": "event"
    },
    {
      "constant": false,
      "inputs": [
        {
          "name": "_name",
          "type": "string"
        },
        {
          "name": "_phone",
          "type": "uint256"
        },
        {
          "name": "_email",
          "type": "string"
        },
        {
          "name": "_addr",
          "type": "address"
        },
        {
          "name": "_pubkey",
          "type": "string"
        }
      ],
      "name": "registerLawyer",
      "outputs": [],
      "payable": false,
      "stateMutability": "nonpayable",
      "type": "function"
    },
    {
      "constant": false,
      "inputs": [
        {
          "name": "_name",
          "type": "string"
        },
        {
          "name": "_phone",
          "type": "uint256"
        },
        {
          "name": "_email",
          "type": "string"
        },
        {
          "name": "_addr",
          "type": "address"
        },
        {
          "name": "_pubkey",
          "type": "string"
        }
      ],
      "name": "registerJudge",
      "outputs": [],
      "payable": false,
      "stateMutability": "nonpayable",
      "type": "function"
    },
    {
      "constant": false,
      "inputs": [
        {
          "name": "_judgeId",
          "type": "uint256"
        },
        {
          "name": "_lawyer1Id",
          "type": "uint256"
        },
        {
          "name": "_lawyer2Id",
          "type": "uint256"
        },
        {
          "name": "_party_1_name",
          "type": "string"
        },
        {
          "name": "_party_2_name",
          "type": "string"
        },
        {
          "name": "_details",
          "type": "string"
        }
      ],
      "name": "newCase",
      "outputs": [],
      "payable": false,
      "stateMutability": "nonpayable",
      "type": "function"
    },
    {
      "constant": false,
      "inputs": [
        {
          "name": "_caseId",
          "type": "uint256"
        },
        {
          "name": "_fileHash",
          "type": "string"
        },
        {
          "name": "_fileType",
          "type": "string"
        }
      ],
      "name": "uploadEvidence",
      "outputs": [],
      "payable": false,
      "stateMutability": "nonpayable",
      "type": "function"
    },
    {
      "constant": true,
      "inputs": [
        {
          "name": "_caseId",
          "type": "uint256"
        }
      ],
      "name": "getEvidenceCount",
      "outputs": [
        {
          "name": "",
          "type": "uint256"
        }
      ],
      "payable": false,
      "stateMutability": "view",
      "type": "function"
    },
    {
      "constant": true,
      "inputs": [
        {
          "name": "_caseId",
          "type": "uint256"
        },
        {
          "name": "_evidenceNo",
          "type": "uint256"
        }
      ],
      "name": "getEvidence",
      "outputs": [
        {
          "name": "FileHash",
          "type": "string"
        },
        {
          "name": "FileType",
          "type": "string"
        }
      ],
      "payable": false,
      "stateMutability": "view",
      "type": "function"
    },
    {
      "constant": false,
      "inputs": [
        {
          "name": "_caseId",
          "type": "uint256"
        },
        {
          "name": "_transcript",
          "type": "string"
        }
      ],
      "name": "uploadTranscript",
      "outputs": [],
      "payable": false,
      "stateMutability": "nonpayable",
      "type": "function"
    },
    {
      "constant": true,
      "inputs": [
        {
          "name": "_caseId",
          "type": "uint256"
        }
      ],
      "name": "getTranscriptsCount",
      "outputs": [
        {
          "name": "",
          "type": "uint256"
        }
      ],
      "payable": false,
      "stateMutability": "view",
      "type": "function"
    },
    {
      "constant": true,
      "inputs": [
        {
          "name": "_caseId",
          "type": "uint256"
        },
        {
          "name": "_transcriptNo",
          "type": "uint256"
        }
      ],
      "name": "getTranscript",
      "outputs": [
        {
          "name": "",
          "type": "string"
        }
      ],
      "payable": false,
      "stateMutability": "view",
      "type": "function"
    },
    {
      "constant": false,
      "inputs": [
        {
          "name": "_isLawyer",
          "type": "bool"
        },
        {
          "name": "_ljId",
          "type": "uint256"
        },
        {
          "name": "_caseId",
          "type": "uint256"
        },
        {
          "name": "_key",
          "type": "string"
        }
      ],
      "name": "addEncryptedKey",
      "outputs": [],
      "payable": false,
      "stateMutability": "nonpayable",
      "type": "function"
    },
    {
      "constant": true,
      "inputs": [
        {
          "name": "_isLawyer",
          "type": "bool"
        },
        {
          "name": "_ljId",
          "type": "uint256"
        },
        {
          "name": "_caseId",
          "type": "uint256"
        }
      ],
      "name": "getEncryptedKey",
      "outputs": [
        {
          "name": "",
          "type": "string"
        }
      ],
      "payable": false,
      "stateMutability": "view",
      "type": "function"
    }
  ],
  "bytecode": "0x608060405234801561001057600080fd5b50336000806101000a81548173ffffffffffffffffffffffffffffffffffffffff021916908373ffffffffffffffffffffffffffffffffffffffff160217905550612b2e806100606000396000f3fe608060405234801561001057600080fd5b50600436106100f55760003560e01c8063a33bf6d211610097578063d7bda86111610066578063d7bda86114610bb7578063f09790dd14610dca578063f1b8a98c14610fe2578063f343d446146110ff576100f5565b8063a33bf6d21461056d578063a6d47c1914610726578063b06b036814610939578063cc5f456214610af2576100f5565b80638da5cb5b116100d35780638da5cb5b146103735780638fa1f8d4146103bd578063991d7e5b1461047a5780639d7a05c6146104bc576100f5565b8063423aee31146100fa5780635b2647c61461013c5780636b27cc0f14610298575b600080fd5b6101266004803603602081101561011057600080fd5b8101908080359060200190929190505050611306565b6040518082815260200191505060405180910390f35b6102966004803603606081101561015257600080fd5b81019080803590602001909291908035906020019064010000000081111561017957600080fd5b82018360208201111561018b57600080fd5b803590602001918460018302840111640100000000831117156101ad57600080fd5b91908080601f016020809104026020016040519081016040528093929190818152602001838380828437600081840152601f19601f8201169050808301925050505050505091929192908035906020019064010000000081111561021057600080fd5b82018360208201111561022257600080fd5b8035906020019184600183028401116401000000008311171561024457600080fd5b91908080601f016020809104026020016040519081016040528093929190818152602001838380828437600081840152601f19601f820116905080830192505050505050509192919290505050611331565b005b610371600480360360808110156102ae57600080fd5b810190808035151590602001909291908035906020019092919080359060200190929190803590602001906401000000008111156102eb57600080fd5b8201836020820111156102fd57600080fd5b8035906020019184600183028401116401000000008311171561031f57600080fd5b91908080601f016020809104026020016040519081016040528093929190818152602001838380828437600081840152601f19601f820116905080830192505050505050509192919290505050611498565b005b61037b61158b565b604051808273ffffffffffffffffffffffffffffffffffffffff1673ffffffffffffffffffffffffffffffffffffffff16815260200191505060405180910390f35b6103ff600480360360608110156103d357600080fd5b8101908080351515906020019092919080359060200190929190803590602001909291905050506115b0565b6040518080602001828103825283818151815260200191508051906020019080838360005b8381101561043f578082015181840152602081019050610424565b50505050905090810190601f16801561046c5780820380516001836020036101000a031916815260200191505b509250505060405180910390f35b6104a66004803603602081101561049057600080fd5b8101908080359060200190929190505050611759565b6040518082815260200191505060405180910390f35b6104f2600480360360408110156104d257600080fd5b810190808035906020019092919080359060200190929190505050611784565b6040518080602001828103825283818151815260200191508051906020019080838360005b83811015610532578082015181840152602081019050610517565b50505050905090810190601f16801561055f5780820380516001836020036101000a031916815260200191505b509250505060405180910390f35b6105996004803603602081101561058357600080fd5b810190808035906020019092919050505061185a565b6040518080602001868152602001806020018573ffffffffffffffffffffffffffffffffffffffff1673ffffffffffffffffffffffffffffffffffffffff16815260200180602001848103845289818151815260200191508051906020019080838360005b838110156106195780820151818401526020810190506105fe565b50505050905090810190601f1680156106465780820380516001836020036101000a031916815260200191505b50848103835287818151815260200191508051906020019080838360005b8381101561067f578082015181840152602081019050610664565b50505050905090810190601f1680156106ac5780820380516001836020036101000a031916815260200191505b50848103825285818151815260200191508051906020019080838360005b838110156106e55780820151818401526020810190506106ca565b50505050905090810190601f1680156107125780820380516001836020036101000a031916815260200191505b509850505050505050505060405180910390f35b610937600480360360a081101561073c57600080fd5b810190808035906020019064010000000081111561075957600080fd5b82018360208201111561076b57600080fd5b8035906020019184600183028401116401000000008311171561078d57600080fd5b91908080601f016020809104026020016040519081016040528093929190818152602001838380828437600081840152601f19601f82011690508083019250505050505050919291929080359060200190929190803590602001906401000000008111156107fa57600080fd5b82018360208201111561080c57600080fd5b8035906020019184600183028401116401000000008311171561082e57600080fd5b91908080601f016020809104026020016040519081016040528093929190818152602001838380828437600081840152601f19601f820116905080830192505050505050509192919290803573ffffffffffffffffffffffffffffffffffffffff169060200190929190803590602001906401000000008111156108b157600080fd5b8201836020820111156108c357600080fd5b803590602001918460018302840111640100000000831117156108e557600080fd5b91908080601f016020809104026020016040519081016040528093929190818152602001838380828437600081840152601f19601f820116905080830192505050505050509192919290505050611a85565b005b6109656004803603602081101561094f57600080fd5b8101908080359060200190929190505050611beb565b6040518080602001868152602001806020018573ffffffffffffffffffffffffffffffffffffffff1673ffffffffffffffffffffffffffffffffffffffff16815260200180602001848103845289818151815260200191508051906020019080838360005b838110156109e55780820151818401526020810190506109ca565b50505050905090810190601f168015610a125780820380516001836020036101000a031916815260200191505b50848103835287818151815260200191508051906020019080838360005b83811015610a4b578082015181840152602081019050610a30565b50505050905090810190601f168015610a785780820380516001836020036101000a031916815260200191505b50848103825285818151815260200191508051906020019080838360005b83811015610ab1578082015181840152602081019050610a96565b50505050905090810190601f168015610ade5780820380516001836020036101000a031916815260200191505b509850505050505050505060405180910390f35b610bb560048036036040811015610b0857600080fd5b810190808035906020019092919080359060200190640100000000811115610b2f57600080fd5b820183602082011115610b4157600080fd5b80359060200191846001830284011164010000000083111715610b6357600080fd5b91908080601f016020809104026020016040519081016040528093929190818152602001838380828437600081840152601f19601f820116905080830192505050505050509192919290505050611e16565b005b610dc8600480360360a0811015610bcd57600080fd5b8101908080359060200190640100000000811115610bea57600080fd5b820183602082011115610bfc57600080fd5b80359060200191846001830284011164010000000083111715610c1e57600080fd5b91908080601f016020809104026020016040519081016040528093929190818152602001838380828437600081840152601f19601f8201169050808301925050505050505091929192908035906020019092919080359060200190640100000000811115610c8b57600080fd5b820183602082011115610c9d57600080fd5b80359060200191846001830284011164010000000083111715610cbf57600080fd5b91908080601f016020809104026020016040519081016040528093929190818152602001838380828437600081840152601f19601f820116905080830192505050505050509192919290803573ffffffffffffffffffffffffffffffffffffffff16906020019092919080359060200190640100000000811115610d4257600080fd5b820183602082011115610d5457600080fd5b80359060200191846001830284011164010000000083111715610d7657600080fd5b91908080601f016020809104026020016040519081016040528093929190818152602001838380828437600081840152601f19601f820116905080830192505050505050509192919290505050611ece565b005b610df660048036036020811015610de057600080fd5b8101908080359060200190929190505050612035565b604051808773ffffffffffffffffffffffffffffffffffffffff1673ffffffffffffffffffffffffffffffffffffffff1681526020018673ffffffffffffffffffffffffffffffffffffffff1673ffffffffffffffffffffffffffffffffffffffff1681526020018573ffffffffffffffffffffffffffffffffffffffff1673ffffffffffffffffffffffffffffffffffffffff168152602001806020018060200180602001848103845287818151815260200191508051906020019080838360005b83811015610ed4578082015181840152602081019050610eb9565b50505050905090810190601f168015610f015780820380516001836020036101000a031916815260200191505b50848103835286818151815260200191508051906020019080838360005b83811015610f3a578082015181840152602081019050610f1f565b50505050905090810190601f168015610f675780820380516001836020036101000a031916815260200191505b50848103825285818151815260200191508051906020019080838360005b83811015610fa0578082015181840152602081019050610f85565b50505050905090810190601f168015610fcd5780820380516001836020036101000a031916815260200191505b50995050505050505050505060405180910390f35b61101860048036036040811015610ff857600080fd5b8101908080359060200190929190803590602001909291905050506122a6565b604051808060200180602001838103835285818151815260200191508051906020019080838360005b8381101561105c578082015181840152602081019050611041565b50505050905090810190601f1680156110895780820380516001836020036101000a031916815260200191505b50838103825284818151815260200191508051906020019080838360005b838110156110c25780820151818401526020810190506110a7565b50505050905090810190601f1680156110ef5780820380516001836020036101000a031916815260200191505b5094505050505060405180910390f35b611304600480360360c081101561111557600080fd5b810190808035906020019092919080359060200190929190803590602001909291908035906020019064010000000081111561115057600080fd5b82018360208201111561116257600080fd5b8035906020019184600183028401116401000000008311171561118457600080fd5b91908080601f016020809104026020016040519081016040528093929190818152602001838380828437600081840152601f19601f820116905080830192505050505050509192919290803590602001906401000000008111156111e757600080fd5b8201836020820111156111f957600080fd5b8035906020019184600183028401116401000000008311171561121b57600080fd5b91908080601f016020809104026020016040519081016040528093929190818152602001838380828437600081840152601f19601f8201169050808301925050505050505091929192908035906020019064010000000081111561127e57600080fd5b82018360208201111561129057600080fd5b803590602001918460018302840111640100000000831117156112b257600080fd5b91908080601f016020809104026020016040519081016040528093929190818152602001838380828437600081840152601f19601f820116905080830192505050505050509192919290505050612452565b005b60006003828154811061131557fe5b9060005260206000209060090201600301805490509050919050565b6000809054906101000a900473ffffffffffffffffffffffffffffffffffffffff1673ffffffffffffffffffffffffffffffffffffffff163373ffffffffffffffffffffffffffffffffffffffff161461138a57600080fd5b60405180602001604052806000815250805190602001208280519060200120141580156113d457506040518060200160405280600081525080519060200120818051906020012014155b6113dd57600080fd5b600383815481106113ea57fe5b90600052602060002090600902016003018290806001815401808255809150509060018203906000526020600020016000909192909190915090805190602001906114369291906127f1565b50506003838154811061144557fe5b90600052602060002090600902016004018190806001815401808255809150509060018203906000526020600020016000909192909190915090805190602001906114919291906127f1565b5050505050565b6000809054906101000a900473ffffffffffffffffffffffffffffffffffffffff1673ffffffffffffffffffffffffffffffffffffffff163373ffffffffffffffffffffffffffffffffffffffff16146114f157600080fd5b831561154057806001848154811061150557fe5b90600052602060002090600602016005016000848152602001908152602001600020908051906020019061153a9291906127f1565b50611585565b806002848154811061154e57fe5b9060005260206000209060060201600501600084815260200190815260200160002090805190602001906115839291906127f1565b505b50505050565b6000809054906101000a900473ffffffffffffffffffffffffffffffffffffffff1681565b6060831561168757600183815481106115c557fe5b906000526020600020906006020160050160008381526020019081526020016000208054600181600116156101000203166002900480601f01602080910402602001604051908101604052809291908181526020018280546001816001161561010002031660029004801561167b5780601f106116505761010080835404028352916020019161167b565b820191906000526020600020905b81548152906001019060200180831161165e57829003601f168201915b50505050509050611752565b6002838154811061169457fe5b906000526020600020906006020160050160008381526020019081526020016000208054600181600116156101000203166002900480601f01602080910402602001604051908101604052809291908181526020018280546001816001161561010002031660029004801561174a5780601f1061171f5761010080835404028352916020019161174a565b820191906000526020600020905b81548152906001019060200180831161172d57829003601f168201915b505050505090505b9392505050565b60006003828154811061176857fe5b9060005260206000209060090201600801805490509050919050565b60606003838154811061179357fe5b906000526020600020906009020160080182815481106117af57fe5b906000526020600020018054600181600116156101000203166002900480601f01602080910402602001604051908101604052809291908181526020018280546001816001161561010002031660029004801561184d5780601f106118225761010080835404028352916020019161184d565b820191906000526020600020905b81548152906001019060200180831161183057829003601f168201915b5050505050905092915050565b6001818154811061186757fe5b9060005260206000209060060201600091509050806000018054600181600116156101000203166002900480601f0160208091040260200160405190810160405280929190818152602001828054600181600116156101000203166002900480156119135780601f106118e857610100808354040283529160200191611913565b820191906000526020600020905b8154815290600101906020018083116118f657829003601f168201915b505050505090806001015490806002018054600181600116156101000203166002900480601f0160208091040260200160405190810160405280929190818152602001828054600181600116156101000203166002900480156119b75780601f1061198c576101008083540402835291602001916119b7565b820191906000526020600020905b81548152906001019060200180831161199a57829003601f168201915b5050505050908060030160009054906101000a900473ffffffffffffffffffffffffffffffffffffffff1690806004018054600181600116156101000203166002900480601f016020809104026020016040519081016040528092919081815260200182805460018160011615610100020316600290048015611a7b5780601f10611a5057610100808354040283529160200191611a7b565b820191906000526020600020905b815481529060010190602001808311611a5e57829003601f168201915b5050505050905085565b611a8d612871565b6040518060a001604052808781526020018681526020018581526020018473ffffffffffffffffffffffffffffffffffffffff168152602001838152509050600181908060018154018082558091505090600182039060005260206000209060060201600090919290919091506000820151816000019080519060200190611b169291906128b6565b50602082015181600101556040820151816002019080519060200190611b3d9291906128b6565b5060608201518160030160006101000a81548173ffffffffffffffffffffffffffffffffffffffff021916908373ffffffffffffffffffffffffffffffffffffffff1602179055506080820151816004019080519060200190611ba19291906128b6565b505050507fd27034f23f8291ab86ab3da722bb1ce4ddfe94c2f69c7e91d98ff4c57b420ede60018080549050036040518082815260200191505060405180910390a1505050505050565b60028181548110611bf857fe5b9060005260206000209060060201600091509050806000018054600181600116156101000203166002900480601f016020809104026020016040519081016040528092919081815260200182805460018160011615610100020316600290048015611ca45780601f10611c7957610100808354040283529160200191611ca4565b820191906000526020600020905b815481529060010190602001808311611c8757829003601f168201915b505050505090806001015490806002018054600181600116156101000203166002900480601f016020809104026020016040519081016040528092919081815260200182805460018160011615610100020316600290048015611d485780601f10611d1d57610100808354040283529160200191611d48565b820191906000526020600020905b815481529060010190602001808311611d2b57829003601f168201915b5050505050908060030160009054906101000a900473ffffffffffffffffffffffffffffffffffffffff1690806004018054600181600116156101000203166002900480601f016020809104026020016040519081016040528092919081815260200182805460018160011615610100020316600290048015611e0c5780601f10611de157610100808354040283529160200191611e0c565b820191906000526020600020905b815481529060010190602001808311611def57829003601f168201915b5050505050905085565b6000809054906101000a900473ffffffffffffffffffffffffffffffffffffffff1673ffffffffffffffffffffffffffffffffffffffff163373ffffffffffffffffffffffffffffffffffffffff1614611e6f57600080fd5b60038281548110611e7c57fe5b9060005260206000209060090201600801819080600181540180825580915050906001820390600052602060002001600090919290919091509080519060200190611ec89291906127f1565b50505050565b611ed6612936565b6040518060a001604052808781526020018681526020018581526020018473ffffffffffffffffffffffffffffffffffffffff168152602001838152509050600281908060018154018082558091505090600182039060005260206000209060060201600090919290919091506000820151816000019080519060200190611f5f9291906128b6565b50602082015181600101556040820151816002019080519060200190611f869291906128b6565b5060608201518160030160006101000a81548173ffffffffffffffffffffffffffffffffffffffff021916908373ffffffffffffffffffffffffffffffffffffffff1602179055506080820151816004019080519060200190611fea9291906128b6565b505050507fca0f0263e10a85892496523b99b9450d1d6e40cbce860b150a7bbf062fbd4e406001600280549050036040518082815260200191505060405180910390a1505050505050565b6003818154811061204257fe5b90600052602060002090600902016000915090508060000160009054906101000a900473ffffffffffffffffffffffffffffffffffffffff16908060010160009054906101000a900473ffffffffffffffffffffffffffffffffffffffff16908060020160009054906101000a900473ffffffffffffffffffffffffffffffffffffffff1690806005018054600181600116156101000203166002900480601f0160208091040260200160405190810160405280929190818152602001828054600181600116156101000203166002900480156121605780601f1061213557610100808354040283529160200191612160565b820191906000526020600020905b81548152906001019060200180831161214357829003601f168201915b505050505090806006018054600181600116156101000203166002900480601f0160208091040260200160405190810160405280929190818152602001828054600181600116156101000203166002900480156121fe5780601f106121d3576101008083540402835291602001916121fe565b820191906000526020600020905b8154815290600101906020018083116121e157829003601f168201915b505050505090806007018054600181600116156101000203166002900480601f01602080910402602001604051908101604052809291908181526020018280546001816001161561010002031660029004801561229c5780601f106122715761010080835404028352916020019161229c565b820191906000526020600020905b81548152906001019060200180831161227f57829003601f168201915b5050505050905086565b606080600384815481106122b657fe5b906000526020600020906009020160030183815481106122d257fe5b90600052602060002001600385815481106122e957fe5b9060005260206000209060090201600401848154811061230557fe5b90600052602060002001818054600181600116156101000203166002900480601f0160208091040260200160405190810160405280929190818152602001828054600181600116156101000203166002900480156123a45780601f10612379576101008083540402835291602001916123a4565b820191906000526020600020905b81548152906001019060200180831161238757829003601f168201915b50505050509150808054600181600116156101000203166002900480601f0160208091040260200160405190810160405280929190818152602001828054600181600116156101000203166002900480156124405780601f1061241557610100808354040283529160200191612440565b820191906000526020600020905b81548152906001019060200180831161242357829003601f168201915b50505050509050915091509250929050565b6000809054906101000a900473ffffffffffffffffffffffffffffffffffffffff1673ffffffffffffffffffffffffffffffffffffffff163373ffffffffffffffffffffffffffffffffffffffff16146124ab57600080fd5b60606124b561297b565b60405180610120016040528060028a815481106124ce57fe5b906000526020600020906006020160030160009054906101000a900473ffffffffffffffffffffffffffffffffffffffff1673ffffffffffffffffffffffffffffffffffffffff1681526020016001898154811061252857fe5b906000526020600020906006020160030160009054906101000a900473ffffffffffffffffffffffffffffffffffffffff1673ffffffffffffffffffffffffffffffffffffffff1681526020016001888154811061258257fe5b906000526020600020906006020160030160009054906101000a900473ffffffffffffffffffffffffffffffffffffffff1673ffffffffffffffffffffffffffffffffffffffff1681526020018381526020018381526020018681526020018581526020018481526020018381525090506003819080600181540180825580915050906001820390600052602060002090600902016000909192909190915060008201518160000160006101000a81548173ffffffffffffffffffffffffffffffffffffffff021916908373ffffffffffffffffffffffffffffffffffffffff16021790555060208201518160010160006101000a81548173ffffffffffffffffffffffffffffffffffffffff021916908373ffffffffffffffffffffffffffffffffffffffff16021790555060408201518160020160006101000a81548173ffffffffffffffffffffffffffffffffffffffff021916908373ffffffffffffffffffffffffffffffffffffffff1602179055506060820151816003019080519060200190612712929190612a09565b50608082015181600401908051906020019061272f929190612a09565b5060a082015181600501908051906020019061274c9291906128b6565b5060c08201518160060190805190602001906127699291906128b6565b5060e08201518160070190805190602001906127869291906128b6565b506101008201518160080190805190602001906127a4929190612a09565b505050507fca0f0263e10a85892496523b99b9450d1d6e40cbce860b150a7bbf062fbd4e406001600380549050036040518082815260200191505060405180910390a15050505050505050565b828054600181600116156101000203166002900490600052602060002090601f016020900481019282601f1061283257805160ff1916838001178555612860565b82800160010185558215612860579182015b8281111561285f578251825591602001919060010190612844565b5b50905061286d9190612a69565b5090565b6040518060a00160405280606081526020016000815260200160608152602001600073ffffffffffffffffffffffffffffffffffffffff168152602001606081525090565b828054600181600116156101000203166002900490600052602060002090601f016020900481019282601f106128f757805160ff1916838001178555612925565b82800160010185558215612925579182015b82811115612924578251825591602001919060010190612909565b5b5090506129329190612a69565b5090565b6040518060a00160405280606081526020016000815260200160608152602001600073ffffffffffffffffffffffffffffffffffffffff168152602001606081525090565b604051806101200160405280600073ffffffffffffffffffffffffffffffffffffffff168152602001600073ffffffffffffffffffffffffffffffffffffffff168152602001600073ffffffffffffffffffffffffffffffffffffffff1681526020016060815260200160608152602001606081526020016060815260200160608152602001606081525090565b828054828255906000526020600020908101928215612a58579160200282015b82811115612a57578251829080519060200190612a479291906128b6565b5091602001919060010190612a29565b5b509050612a659190612a8e565b5090565b612a8b91905b80821115612a87576000816000905550600101612a6f565b5090565b90565b612ab791905b80821115612ab35760008181612aaa9190612aba565b50600101612a94565b5090565b90565b50805460018160011615610100020316600290046000825580601f10612ae05750612aff565b601f016020900490600052602060002090810190612afe9190612a69565b5b5056fea165627a7a72305820cb5f24870264975c45984140b73f303cf138e9e1389575db0a6b27575308526b0029",
  "source": "pragma solidity ^0.5.0;\n\ncontract Court {\n    address public owner;\n    modifier onlyOwner() {\n        if (msg.sender != owner) {\n            revert();\n        }\n        _;\n    }\n    \n    struct Lawyer {\n        string name;\n        uint phone;\n        string email;\n        address addr;\n        string pubkey;\n        mapping(uint => string) encryptedKeys;     //for each case\n    }\n    \n    struct Judge {\n        string name;\n        uint phone;\n        string email;\n        address addr;\n        string pubkey;\n        mapping(uint => string) encryptedKeys;\n    }\n    \n    Lawyer[] public lawyers;\n    Judge[] public judges;\n    \n    struct Case {\n        address judge;\n        address lawyer1;\n        address lawyer2;\n        string[] evidenceFileHash;\n        string[] evidenceFileType;\n        \n        string party_1_name;\n        string party_2_name;\n        string details;\n        string[] transcripts;\n    }\n    \n    Case[] public cases;\n    \n    event lawyerRegistered(uint _lawyerId);\n    event JudgeRegistered(uint _judgeId);\n    event caseCreated(uint _caseId);\n    \n    function registerLawyer(string memory _name, uint _phone, string memory _email, address _addr, string memory _pubkey) public {\n        Lawyer memory l = Lawyer(_name, _phone, _email, _addr, _pubkey);\n        lawyers.push(l);\n        emit lawyerRegistered(lawyers.length-1);\n    }\n    function registerJudge(string memory _name, uint _phone, string memory _email, address _addr, string memory _pubkey) public {\n        Judge memory j = Judge(_name, _phone, _email, _addr, _pubkey);\n        judges.push(j);\n        emit caseCreated(judges.length-1);\n    }\n    \n    function newCase(uint _judgeId, uint _lawyer1Id, uint _lawyer2Id, string memory _party_1_name, string memory _party_2_name, string memory _details) public onlyOwner {\n        string[] memory empty;\n        Case memory tcase = Case(judges[_judgeId].addr, lawyers[_lawyer1Id].addr, lawyers[_lawyer2Id].addr, empty, empty, _party_1_name, _party_2_name, _details, empty);\n        cases.push(tcase);\n        \n        emit caseCreated(cases.length-1);\n    }\n    \n    // Evidence\n    function uploadEvidence(uint _caseId, string memory _fileHash, string memory _fileType) onlyOwner public {\n        // to compare String without importing StringUtils Contract:\n        require(keccak256(bytes(_fileHash)) != keccak256(bytes(\"\")) && keccak256(bytes(_fileType)) != keccak256(bytes(\"\")));    //here checking string Not Null\n        cases[_caseId].evidenceFileHash.push(_fileHash);\n        cases[_caseId].evidenceFileType.push(_fileType);\n    }\n    \n    function getEvidenceCount(uint _caseId) public view returns(uint) {\n        return cases[_caseId].evidenceFileHash.length;\n    }\n    function getEvidence(uint _caseId, uint _evidenceNo) public view returns(string memory FileHash, string memory FileType) {\n        return (cases[_caseId].evidenceFileHash[_evidenceNo], cases[_caseId].evidenceFileType[_evidenceNo]);\n    }\n    \n    //Transcript\n    function uploadTranscript(uint _caseId, string memory _transcript) onlyOwner public {\n        cases[_caseId].transcripts.push(_transcript);\n    }\n    function getTranscriptsCount(uint _caseId) public view returns(uint) {\n        return cases[_caseId].transcripts.length;\n    }\n    function getTranscript(uint _caseId, uint _transcriptNo) public view returns(string memory) {\n        return cases[_caseId].transcripts[_transcriptNo];\n    }\n    \n    //EncryptedKeys\n    function addEncryptedKey(bool _isLawyer, uint _ljId, uint _caseId, string memory _key) public onlyOwner {\n        if(_isLawyer) {\n            lawyers[_ljId].encryptedKeys[_caseId] = _key;\n        } else {\n            judges[_ljId].encryptedKeys[_caseId] = _key;\n        }\n    }\n    function getEncryptedKey(bool _isLawyer, uint _ljId, uint _caseId) public view returns(string memory) {\n        if(_isLawyer) {\n            return lawyers[_ljId].encryptedKeys[_caseId];\n        } else {\n            return judges[_ljId].encryptedKeys[_caseId];\n        }\n    }\n    \n    constructor() public {\n        owner = msg.sender;\n    }\n}",
  "sourcePath": "D:/Coding/Blockchain/ethindia2/contracts/Court.sol",
  "compiler": {
    "name": "solc",
    "version": "0.5.8+commit.23d335f2.Emscripten.clang"
  },
  "schemaVersion": "3.0.16",
  "updatedAt": "2020-02-28T11:40:56.357Z",
  "devdoc": {
    "methods": {}
  },
  "userdoc": {
    "methods": {}
  }
}