{
  "contractName": "Court",
  "abi": [
    {
      "constant": true,
      "inputs": [],
      "name": "owner",
      "outputs": [
        {
          "name": "",
          "type": "address"
        }
      ],
      "payable": false,
      "stateMutability": "view",
      "type": "function"
    },
    {
      "constant": true,
      "inputs": [
        {
          "name": "",
          "type": "uint256"
        }
      ],
      "name": "lawyers",
      "outputs": [
        {
          "name": "name",
          "type": "string"
        },
        {
          "name": "phone",
          "type": "uint256"
        },
        {
          "name": "email",
          "type": "string"
        },
        {
          "name": "addr",
          "type": "address"
        },
        {
          "name": "pubkey",
          "type": "string"
        }
      ],
      "payable": false,
      "stateMutability": "view",
      "type": "function"
    },
    {
      "constant": true,
      "inputs": [
        {
          "name": "",
          "type": "uint256"
        }
      ],
      "name": "judges",
      "outputs": [
        {
          "name": "name",
          "type": "string"
        },
        {
          "name": "phone",
          "type": "uint256"
        },
        {
          "name": "email",
          "type": "string"
        },
        {
          "name": "addr",
          "type": "address"
        },
        {
          "name": "pubkey",
          "type": "string"
        }
      ],
      "payable": false,
      "stateMutability": "view",
      "type": "function"
    },
    {
      "constant": true,
      "inputs": [
        {
          "name": "",
          "type": "uint256"
        }
      ],
      "name": "cases",
      "outputs": [
        {
          "name": "judge",
          "type": "address"
        },
        {
          "name": "lawyer1",
          "type": "address"
        },
        {
          "name": "lawyer2",
          "type": "address"
        },
        {
          "name": "party_1_name",
          "type": "string"
        },
        {
          "name": "party_2_name",
          "type": "string"
        },
        {
          "name": "details",
          "type": "string"
        }
      ],
      "payable": false,
      "stateMutability": "view",
      "type": "function"
    },
    {
      "inputs": [],
      "payable": false,
      "stateMutability": "nonpayable",
      "type": "constructor"
    },
    {
      "constant": false,
      "inputs": [
        {
          "name": "_name",
          "type": "string"
        },
        {
          "name": "_phone",
          "type": "uint256"
        },
        {
          "name": "_email",
          "type": "string"
        },
        {
          "name": "_addr",
          "type": "address"
        },
        {
          "name": "_pubkey",
          "type": "string"
        }
      ],
      "name": "registerLawyer",
      "outputs": [
        {
          "name": "lawyerId",
          "type": "uint256"
        }
      ],
      "payable": false,
      "stateMutability": "nonpayable",
      "type": "function"
    },
    {
      "constant": false,
      "inputs": [
        {
          "name": "_name",
          "type": "string"
        },
        {
          "name": "_phone",
          "type": "uint256"
        },
        {
          "name": "_email",
          "type": "string"
        },
        {
          "name": "_addr",
          "type": "address"
        },
        {
          "name": "_pubkey",
          "type": "string"
        }
      ],
      "name": "registerJudge",
      "outputs": [
        {
          "name": "judgeId",
          "type": "uint256"
        }
      ],
      "payable": false,
      "stateMutability": "nonpayable",
      "type": "function"
    },
    {
      "constant": false,
      "inputs": [
        {
          "name": "_judgeId",
          "type": "uint256"
        },
        {
          "name": "_lawyer1Id",
          "type": "uint256"
        },
        {
          "name": "_lawyer2Id",
          "type": "uint256"
        },
        {
          "name": "_party_1_name",
          "type": "string"
        },
        {
          "name": "_party_2_name",
          "type": "string"
        },
        {
          "name": "_details",
          "type": "string"
        }
      ],
      "name": "newCase",
      "outputs": [
        {
          "name": "caseId",
          "type": "uint256"
        }
      ],
      "payable": false,
      "stateMutability": "nonpayable",
      "type": "function"
    },
    {
      "constant": false,
      "inputs": [
        {
          "name": "_caseId",
          "type": "uint256"
        },
        {
          "name": "_fileHash",
          "type": "string"
        },
        {
          "name": "_fileType",
          "type": "string"
        }
      ],
      "name": "uploadEvidence",
      "outputs": [],
      "payable": false,
      "stateMutability": "nonpayable",
      "type": "function"
    },
    {
      "constant": true,
      "inputs": [
        {
          "name": "_caseId",
          "type": "uint256"
        }
      ],
      "name": "getEvidenceCount",
      "outputs": [
        {
          "name": "",
          "type": "uint256"
        }
      ],
      "payable": false,
      "stateMutability": "view",
      "type": "function"
    },
    {
      "constant": true,
      "inputs": [
        {
          "name": "_caseId",
          "type": "uint256"
        },
        {
          "name": "_evidenceNo",
          "type": "uint256"
        }
      ],
      "name": "getEvidence",
      "outputs": [
        {
          "name": "FileHash",
          "type": "string"
        },
        {
          "name": "FileType",
          "type": "string"
        }
      ],
      "payable": false,
      "stateMutability": "view",
      "type": "function"
    },
    {
      "constant": false,
      "inputs": [
        {
          "name": "_caseId",
          "type": "uint256"
        },
        {
          "name": "_transcript",
          "type": "string"
        }
      ],
      "name": "uploadTranscript",
      "outputs": [],
      "payable": false,
      "stateMutability": "nonpayable",
      "type": "function"
    },
    {
      "constant": true,
      "inputs": [
        {
          "name": "_caseId",
          "type": "uint256"
        }
      ],
      "name": "getTranscriptsCount",
      "outputs": [
        {
          "name": "",
          "type": "uint256"
        }
      ],
      "payable": false,
      "stateMutability": "view",
      "type": "function"
    },
    {
      "constant": true,
      "inputs": [
        {
          "name": "_caseId",
          "type": "uint256"
        },
        {
          "name": "_transcriptNo",
          "type": "uint256"
        }
      ],
      "name": "getTranscript",
      "outputs": [
        {
          "name": "",
          "type": "string"
        }
      ],
      "payable": false,
      "stateMutability": "view",
      "type": "function"
    },
    {
      "constant": false,
      "inputs": [
        {
          "name": "_isLawyer",
          "type": "bool"
        },
        {
          "name": "_ljId",
          "type": "uint256"
        },
        {
          "name": "_caseId",
          "type": "uint256"
        },
        {
          "name": "_key",
          "type": "string"
        }
      ],
      "name": "addEncryptedKey",
      "outputs": [],
      "payable": false,
      "stateMutability": "nonpayable",
      "type": "function"
    },
    {
      "constant": true,
      "inputs": [
        {
          "name": "_isLawyer",
          "type": "bool"
        },
        {
          "name": "_ljId",
          "type": "uint256"
        },
        {
          "name": "_caseId",
          "type": "uint256"
        }
      ],
      "name": "getEncryptedKey",
      "outputs": [
        {
          "name": "",
          "type": "string"
        }
      ],
      "payable": false,
      "stateMutability": "view",
      "type": "function"
    }
  ],
  "bytecode": "0x608060405234801561001057600080fd5b50336000806101000a81548173ffffffffffffffffffffffffffffffffffffffff021916908373ffffffffffffffffffffffffffffffffffffffff160217905550612ada806100606000396000f3fe608060405234801561001057600080fd5b50600436106100f55760003560e01c8063a33bf6d211610097578063d7bda86111610066578063d7bda86114610bcb578063f09790dd14610df2578063f1b8a98c1461100a578063f343d44614611127576100f5565b8063a33bf6d21461056d578063a6d47c1914610726578063b06b03681461094d578063cc5f456214610b06576100f5565b80638da5cb5b116100d35780638da5cb5b146103735780638fa1f8d4146103bd578063991d7e5b1461047a5780639d7a05c6146104bc576100f5565b8063423aee31146100fa5780635b2647c61461013c5780636b27cc0f14610298575b600080fd5b6101266004803603602081101561011057600080fd5b8101908080359060200190929190505050611342565b6040518082815260200191505060405180910390f35b6102966004803603606081101561015257600080fd5b81019080803590602001909291908035906020019064010000000081111561017957600080fd5b82018360208201111561018b57600080fd5b803590602001918460018302840111640100000000831117156101ad57600080fd5b91908080601f016020809104026020016040519081016040528093929190818152602001838380828437600081840152601f19601f8201169050808301925050505050505091929192908035906020019064010000000081111561021057600080fd5b82018360208201111561022257600080fd5b8035906020019184600183028401116401000000008311171561024457600080fd5b91908080601f016020809104026020016040519081016040528093929190818152602001838380828437600081840152601f19601f82011690508083019250505050505050919291929050505061136d565b005b610371600480360360808110156102ae57600080fd5b810190808035151590602001909291908035906020019092919080359060200190929190803590602001906401000000008111156102eb57600080fd5b8201836020820111156102fd57600080fd5b8035906020019184600183028401116401000000008311171561031f57600080fd5b91908080601f016020809104026020016040519081016040528093929190818152602001838380828437600081840152601f19601f8201169050808301925050505050505091929192905050506114d4565b005b61037b6115c7565b604051808273ffffffffffffffffffffffffffffffffffffffff1673ffffffffffffffffffffffffffffffffffffffff16815260200191505060405180910390f35b6103ff600480360360608110156103d357600080fd5b8101908080351515906020019092919080359060200190929190803590602001909291905050506115ec565b6040518080602001828103825283818151815260200191508051906020019080838360005b8381101561043f578082015181840152602081019050610424565b50505050905090810190601f16801561046c5780820380516001836020036101000a031916815260200191505b509250505060405180910390f35b6104a66004803603602081101561049057600080fd5b8101908080359060200190929190505050611795565b6040518082815260200191505060405180910390f35b6104f2600480360360408110156104d257600080fd5b8101908080359060200190929190803590602001909291905050506117c0565b6040518080602001828103825283818151815260200191508051906020019080838360005b83811015610532578082015181840152602081019050610517565b50505050905090810190601f16801561055f5780820380516001836020036101000a031916815260200191505b509250505060405180910390f35b6105996004803603602081101561058357600080fd5b8101908080359060200190929190505050611896565b6040518080602001868152602001806020018573ffffffffffffffffffffffffffffffffffffffff1673ffffffffffffffffffffffffffffffffffffffff16815260200180602001848103845289818151815260200191508051906020019080838360005b838110156106195780820151818401526020810190506105fe565b50505050905090810190601f1680156106465780820380516001836020036101000a031916815260200191505b50848103835287818151815260200191508051906020019080838360005b8381101561067f578082015181840152602081019050610664565b50505050905090810190601f1680156106ac5780820380516001836020036101000a031916815260200191505b50848103825285818151815260200191508051906020019080838360005b838110156106e55780820151818401526020810190506106ca565b50505050905090810190601f1680156107125780820380516001836020036101000a031916815260200191505b509850505050505050505060405180910390f35b610937600480360360a081101561073c57600080fd5b810190808035906020019064010000000081111561075957600080fd5b82018360208201111561076b57600080fd5b8035906020019184600183028401116401000000008311171561078d57600080fd5b91908080601f016020809104026020016040519081016040528093929190818152602001838380828437600081840152601f19601f82011690508083019250505050505050919291929080359060200190929190803590602001906401000000008111156107fa57600080fd5b82018360208201111561080c57600080fd5b8035906020019184600183028401116401000000008311171561082e57600080fd5b91908080601f016020809104026020016040519081016040528093929190818152602001838380828437600081840152601f19601f820116905080830192505050505050509192919290803573ffffffffffffffffffffffffffffffffffffffff169060200190929190803590602001906401000000008111156108b157600080fd5b8201836020820111156108c357600080fd5b803590602001918460018302840111640100000000831117156108e557600080fd5b91908080601f016020809104026020016040519081016040528093929190818152602001838380828437600081840152601f19601f820116905080830192505050505050509192919290505050611ac1565b6040518082815260200191505060405180910390f35b6109796004803603602081101561096357600080fd5b8101908080359060200190929190505050611bf7565b6040518080602001868152602001806020018573ffffffffffffffffffffffffffffffffffffffff1673ffffffffffffffffffffffffffffffffffffffff16815260200180602001848103845289818151815260200191508051906020019080838360005b838110156109f95780820151818401526020810190506109de565b50505050905090810190601f168015610a265780820380516001836020036101000a031916815260200191505b50848103835287818151815260200191508051906020019080838360005b83811015610a5f578082015181840152602081019050610a44565b50505050905090810190601f168015610a8c5780820380516001836020036101000a031916815260200191505b50848103825285818151815260200191508051906020019080838360005b83811015610ac5578082015181840152602081019050610aaa565b50505050905090810190601f168015610af25780820380516001836020036101000a031916815260200191505b509850505050505050505060405180910390f35b610bc960048036036040811015610b1c57600080fd5b810190808035906020019092919080359060200190640100000000811115610b4357600080fd5b820183602082011115610b5557600080fd5b80359060200191846001830284011164010000000083111715610b7757600080fd5b91908080601f016020809104026020016040519081016040528093929190818152602001838380828437600081840152601f19601f820116905080830192505050505050509192919290505050611e22565b005b610ddc600480360360a0811015610be157600080fd5b8101908080359060200190640100000000811115610bfe57600080fd5b820183602082011115610c1057600080fd5b80359060200191846001830284011164010000000083111715610c3257600080fd5b91908080601f016020809104026020016040519081016040528093929190818152602001838380828437600081840152601f19601f8201169050808301925050505050505091929192908035906020019092919080359060200190640100000000811115610c9f57600080fd5b820183602082011115610cb157600080fd5b80359060200191846001830284011164010000000083111715610cd357600080fd5b91908080601f016020809104026020016040519081016040528093929190818152602001838380828437600081840152601f19601f820116905080830192505050505050509192919290803573ffffffffffffffffffffffffffffffffffffffff16906020019092919080359060200190640100000000811115610d5657600080fd5b820183602082011115610d6857600080fd5b80359060200191846001830284011164010000000083111715610d8a57600080fd5b91908080601f016020809104026020016040519081016040528093929190818152602001838380828437600081840152601f19601f820116905080830192505050505050509192919290505050611eda565b6040518082815260200191505060405180910390f35b610e1e60048036036020811015610e0857600080fd5b8101908080359060200190929190505050612011565b604051808773ffffffffffffffffffffffffffffffffffffffff1673ffffffffffffffffffffffffffffffffffffffff1681526020018673ffffffffffffffffffffffffffffffffffffffff1673ffffffffffffffffffffffffffffffffffffffff1681526020018573ffffffffffffffffffffffffffffffffffffffff1673ffffffffffffffffffffffffffffffffffffffff168152602001806020018060200180602001848103845287818151815260200191508051906020019080838360005b83811015610efc578082015181840152602081019050610ee1565b50505050905090810190601f168015610f295780820380516001836020036101000a031916815260200191505b50848103835286818151815260200191508051906020019080838360005b83811015610f62578082015181840152602081019050610f47565b50505050905090810190601f168015610f8f5780820380516001836020036101000a031916815260200191505b50848103825285818151815260200191508051906020019080838360005b83811015610fc8578082015181840152602081019050610fad565b50505050905090810190601f168015610ff55780820380516001836020036101000a031916815260200191505b50995050505050505050505060405180910390f35b6110406004803603604081101561102057600080fd5b810190808035906020019092919080359060200190929190505050612282565b604051808060200180602001838103835285818151815260200191508051906020019080838360005b83811015611084578082015181840152602081019050611069565b50505050905090810190601f1680156110b15780820380516001836020036101000a031916815260200191505b50838103825284818151815260200191508051906020019080838360005b838110156110ea5780820151818401526020810190506110cf565b50505050905090810190601f1680156111175780820380516001836020036101000a031916815260200191505b5094505050505060405180910390f35b61132c600480360360c081101561113d57600080fd5b810190808035906020019092919080359060200190929190803590602001909291908035906020019064010000000081111561117857600080fd5b82018360208201111561118a57600080fd5b803590602001918460018302840111640100000000831117156111ac57600080fd5b91908080601f016020809104026020016040519081016040528093929190818152602001838380828437600081840152601f19601f8201169050808301925050505050505091929192908035906020019064010000000081111561120f57600080fd5b82018360208201111561122157600080fd5b8035906020019184600183028401116401000000008311171561124357600080fd5b91908080601f016020809104026020016040519081016040528093929190818152602001838380828437600081840152601f19601f820116905080830192505050505050509192919290803590602001906401000000008111156112a657600080fd5b8201836020820111156112b857600080fd5b803590602001918460018302840111640100000000831117156112da57600080fd5b91908080601f016020809104026020016040519081016040528093929190818152602001838380828437600081840152601f19601f82011690508083019250505050505050919291929050505061242e565b6040518082815260200191505060405180910390f35b60006003828154811061135157fe5b9060005260206000209060090201600301805490509050919050565b6000809054906101000a900473ffffffffffffffffffffffffffffffffffffffff1673ffffffffffffffffffffffffffffffffffffffff163373ffffffffffffffffffffffffffffffffffffffff16146113c657600080fd5b604051806020016040528060008152508051906020012082805190602001201415801561141057506040518060200160405280600081525080519060200120818051906020012014155b61141957600080fd5b6003838154811061142657fe5b906000526020600020906009020160030182908060018154018082558091505090600182039060005260206000200160009091929091909150908051906020019061147292919061279d565b50506003838154811061148157fe5b90600052602060002090600902016004018190806001815401808255809150509060018203906000526020600020016000909192909190915090805190602001906114cd92919061279d565b5050505050565b6000809054906101000a900473ffffffffffffffffffffffffffffffffffffffff1673ffffffffffffffffffffffffffffffffffffffff163373ffffffffffffffffffffffffffffffffffffffff161461152d57600080fd5b831561157c57806001848154811061154157fe5b90600052602060002090600602016005016000848152602001908152602001600020908051906020019061157692919061279d565b506115c1565b806002848154811061158a57fe5b9060005260206000209060060201600501600084815260200190815260200160002090805190602001906115bf92919061279d565b505b50505050565b6000809054906101000a900473ffffffffffffffffffffffffffffffffffffffff1681565b606083156116c3576001838154811061160157fe5b906000526020600020906006020160050160008381526020019081526020016000208054600181600116156101000203166002900480601f0160208091040260200160405190810160405280929190818152602001828054600181600116156101000203166002900480156116b75780601f1061168c576101008083540402835291602001916116b7565b820191906000526020600020905b81548152906001019060200180831161169a57829003601f168201915b5050505050905061178e565b600283815481106116d057fe5b906000526020600020906006020160050160008381526020019081526020016000208054600181600116156101000203166002900480601f0160208091040260200160405190810160405280929190818152602001828054600181600116156101000203166002900480156117865780601f1061175b57610100808354040283529160200191611786565b820191906000526020600020905b81548152906001019060200180831161176957829003601f168201915b505050505090505b9392505050565b6000600382815481106117a457fe5b9060005260206000209060090201600801805490509050919050565b6060600383815481106117cf57fe5b906000526020600020906009020160080182815481106117eb57fe5b906000526020600020018054600181600116156101000203166002900480601f0160208091040260200160405190810160405280929190818152602001828054600181600116156101000203166002900480156118895780601f1061185e57610100808354040283529160200191611889565b820191906000526020600020905b81548152906001019060200180831161186c57829003601f168201915b5050505050905092915050565b600181815481106118a357fe5b9060005260206000209060060201600091509050806000018054600181600116156101000203166002900480601f01602080910402602001604051908101604052809291908181526020018280546001816001161561010002031660029004801561194f5780601f106119245761010080835404028352916020019161194f565b820191906000526020600020905b81548152906001019060200180831161193257829003601f168201915b505050505090806001015490806002018054600181600116156101000203166002900480601f0160208091040260200160405190810160405280929190818152602001828054600181600116156101000203166002900480156119f35780601f106119c8576101008083540402835291602001916119f3565b820191906000526020600020905b8154815290600101906020018083116119d657829003601f168201915b5050505050908060030160009054906101000a900473ffffffffffffffffffffffffffffffffffffffff1690806004018054600181600116156101000203166002900480601f016020809104026020016040519081016040528092919081815260200182805460018160011615610100020316600290048015611ab75780601f10611a8c57610100808354040283529160200191611ab7565b820191906000526020600020905b815481529060010190602001808311611a9a57829003601f168201915b5050505050905085565b6000611acb61281d565b6040518060a001604052808881526020018781526020018681526020018573ffffffffffffffffffffffffffffffffffffffff168152602001848152509050600181908060018154018082558091505090600182039060005260206000209060060201600090919290919091506000820151816000019080519060200190611b54929190612862565b50602082015181600101556040820151816002019080519060200190611b7b929190612862565b5060608201518160030160006101000a81548173ffffffffffffffffffffffffffffffffffffffff021916908373ffffffffffffffffffffffffffffffffffffffff1602179055506080820151816004019080519060200190611bdf929190612862565b50505050600180805490500391505095945050505050565b60028181548110611c0457fe5b9060005260206000209060060201600091509050806000018054600181600116156101000203166002900480601f016020809104026020016040519081016040528092919081815260200182805460018160011615610100020316600290048015611cb05780601f10611c8557610100808354040283529160200191611cb0565b820191906000526020600020905b815481529060010190602001808311611c9357829003601f168201915b505050505090806001015490806002018054600181600116156101000203166002900480601f016020809104026020016040519081016040528092919081815260200182805460018160011615610100020316600290048015611d545780601f10611d2957610100808354040283529160200191611d54565b820191906000526020600020905b815481529060010190602001808311611d3757829003601f168201915b5050505050908060030160009054906101000a900473ffffffffffffffffffffffffffffffffffffffff1690806004018054600181600116156101000203166002900480601f016020809104026020016040519081016040528092919081815260200182805460018160011615610100020316600290048015611e185780601f10611ded57610100808354040283529160200191611e18565b820191906000526020600020905b815481529060010190602001808311611dfb57829003601f168201915b5050505050905085565b6000809054906101000a900473ffffffffffffffffffffffffffffffffffffffff1673ffffffffffffffffffffffffffffffffffffffff163373ffffffffffffffffffffffffffffffffffffffff1614611e7b57600080fd5b60038281548110611e8857fe5b9060005260206000209060090201600801819080600181540180825580915050906001820390600052602060002001600090919290919091509080519060200190611ed492919061279d565b50505050565b6000611ee46128e2565b6040518060a001604052808881526020018781526020018681526020018573ffffffffffffffffffffffffffffffffffffffff168152602001848152509050600281908060018154018082558091505090600182039060005260206000209060060201600090919290919091506000820151816000019080519060200190611f6d929190612862565b50602082015181600101556040820151816002019080519060200190611f94929190612862565b5060608201518160030160006101000a81548173ffffffffffffffffffffffffffffffffffffffff021916908373ffffffffffffffffffffffffffffffffffffffff1602179055506080820151816004019080519060200190611ff8929190612862565b5050505060016002805490500391505095945050505050565b6003818154811061201e57fe5b90600052602060002090600902016000915090508060000160009054906101000a900473ffffffffffffffffffffffffffffffffffffffff16908060010160009054906101000a900473ffffffffffffffffffffffffffffffffffffffff16908060020160009054906101000a900473ffffffffffffffffffffffffffffffffffffffff1690806005018054600181600116156101000203166002900480601f01602080910402602001604051908101604052809291908181526020018280546001816001161561010002031660029004801561213c5780601f106121115761010080835404028352916020019161213c565b820191906000526020600020905b81548152906001019060200180831161211f57829003601f168201915b505050505090806006018054600181600116156101000203166002900480601f0160208091040260200160405190810160405280929190818152602001828054600181600116156101000203166002900480156121da5780601f106121af576101008083540402835291602001916121da565b820191906000526020600020905b8154815290600101906020018083116121bd57829003601f168201915b505050505090806007018054600181600116156101000203166002900480601f0160208091040260200160405190810160405280929190818152602001828054600181600116156101000203166002900480156122785780601f1061224d57610100808354040283529160200191612278565b820191906000526020600020905b81548152906001019060200180831161225b57829003601f168201915b5050505050905086565b6060806003848154811061229257fe5b906000526020600020906009020160030183815481106122ae57fe5b90600052602060002001600385815481106122c557fe5b906000526020600020906009020160040184815481106122e157fe5b90600052602060002001818054600181600116156101000203166002900480601f0160208091040260200160405190810160405280929190818152602001828054600181600116156101000203166002900480156123805780601f1061235557610100808354040283529160200191612380565b820191906000526020600020905b81548152906001019060200180831161236357829003601f168201915b50505050509150808054600181600116156101000203166002900480601f01602080910402602001604051908101604052809291908181526020018280546001816001161561010002031660029004801561241c5780601f106123f15761010080835404028352916020019161241c565b820191906000526020600020905b8154815290600101906020018083116123ff57829003601f168201915b50505050509050915091509250929050565b60008060009054906101000a900473ffffffffffffffffffffffffffffffffffffffff1673ffffffffffffffffffffffffffffffffffffffff163373ffffffffffffffffffffffffffffffffffffffff161461248957600080fd5b6060612493612927565b60405180610120016040528060028b815481106124ac57fe5b906000526020600020906006020160030160009054906101000a900473ffffffffffffffffffffffffffffffffffffffff1673ffffffffffffffffffffffffffffffffffffffff16815260200160018a8154811061250657fe5b906000526020600020906006020160030160009054906101000a900473ffffffffffffffffffffffffffffffffffffffff1673ffffffffffffffffffffffffffffffffffffffff1681526020016001898154811061256057fe5b906000526020600020906006020160030160009054906101000a900473ffffffffffffffffffffffffffffffffffffffff1673ffffffffffffffffffffffffffffffffffffffff1681526020018381526020018381526020018781526020018681526020018581526020018381525090506003819080600181540180825580915050906001820390600052602060002090600902016000909192909190915060008201518160000160006101000a81548173ffffffffffffffffffffffffffffffffffffffff021916908373ffffffffffffffffffffffffffffffffffffffff16021790555060208201518160010160006101000a81548173ffffffffffffffffffffffffffffffffffffffff021916908373ffffffffffffffffffffffffffffffffffffffff16021790555060408201518160020160006101000a81548173ffffffffffffffffffffffffffffffffffffffff021916908373ffffffffffffffffffffffffffffffffffffffff16021790555060608201518160030190805190602001906126f09291906129b5565b50608082015181600401908051906020019061270d9291906129b5565b5060a082015181600501908051906020019061272a929190612862565b5060c0820151816006019080519060200190612747929190612862565b5060e0820151816007019080519060200190612764929190612862565b506101008201518160080190805190602001906127829291906129b5565b50505050600160038054905003925050509695505050505050565b828054600181600116156101000203166002900490600052602060002090601f016020900481019282601f106127de57805160ff191683800117855561280c565b8280016001018555821561280c579182015b8281111561280b5782518255916020019190600101906127f0565b5b5090506128199190612a15565b5090565b6040518060a00160405280606081526020016000815260200160608152602001600073ffffffffffffffffffffffffffffffffffffffff168152602001606081525090565b828054600181600116156101000203166002900490600052602060002090601f016020900481019282601f106128a357805160ff19168380011785556128d1565b828001600101855582156128d1579182015b828111156128d05782518255916020019190600101906128b5565b5b5090506128de9190612a15565b5090565b6040518060a00160405280606081526020016000815260200160608152602001600073ffffffffffffffffffffffffffffffffffffffff168152602001606081525090565b604051806101200160405280600073ffffffffffffffffffffffffffffffffffffffff168152602001600073ffffffffffffffffffffffffffffffffffffffff168152602001600073ffffffffffffffffffffffffffffffffffffffff1681526020016060815260200160608152602001606081526020016060815260200160608152602001606081525090565b828054828255906000526020600020908101928215612a04579160200282015b82811115612a035782518290805190602001906129f3929190612862565b50916020019190600101906129d5565b5b509050612a119190612a3a565b5090565b612a3791905b80821115612a33576000816000905550600101612a1b565b5090565b90565b612a6391905b80821115612a5f5760008181612a569190612a66565b50600101612a40565b5090565b90565b50805460018160011615610100020316600290046000825580601f10612a8c5750612aab565b601f016020900490600052602060002090810190612aaa9190612a15565b5b5056fea165627a7a72305820d4ebc338201deacd84313a4e7df73d2c679cf03a7127ed09be73ada66ec880d70029",
  "source": "pragma solidity ^0.5.0;\n\ncontract Court {\n    address public owner;\n    modifier onlyOwner() {\n        if (msg.sender != owner) {\n            revert();\n        }\n        _;\n    }\n    \n    struct Lawyer {\n        string name;\n        uint phone;\n        string email;\n        address addr;\n        string pubkey;\n        mapping(uint => string) encryptedKeys;     //for each case\n    }\n    \n    struct Judge {\n        string name;\n        uint phone;\n        string email;\n        address addr;\n        string pubkey;\n        mapping(uint => string) encryptedKeys;\n    }\n    \n    Lawyer[] public lawyers;\n    Judge[] public judges;\n    \n    struct Case {\n        address judge;\n        address lawyer1;\n        address lawyer2;\n        string[] evidenceFileHash;\n        string[] evidenceFileType;\n        \n        string party_1_name;\n        string party_2_name;\n        string details;\n        string[] transcripts;\n    }\n    \n    Case[] public cases;\n    \n    function registerLawyer(string memory _name, uint _phone, string memory _email, address _addr, string memory _pubkey) public returns(uint lawyerId) {\n        Lawyer memory l = Lawyer(_name, _phone, _email, _addr, _pubkey);\n        lawyers.push(l);\n        return (lawyers.length-1);\n    }\n    function registerJudge(string memory _name, uint _phone, string memory _email, address _addr, string memory _pubkey) public returns(uint judgeId) {\n        Judge memory j = Judge(_name, _phone, _email, _addr, _pubkey);\n        judges.push(j);\n        return (judges.length-1);\n    }\n    \n    function newCase(uint _judgeId, uint _lawyer1Id, uint _lawyer2Id, string memory _party_1_name, string memory _party_2_name, string memory _details) public onlyOwner returns(uint caseId) {\n        string[] memory empty;\n        Case memory tcase = Case(judges[_judgeId].addr, lawyers[_lawyer1Id].addr, lawyers[_lawyer2Id].addr, empty, empty, _party_1_name, _party_2_name, _details, empty);\n        cases.push(tcase);\n        \n        return (cases.length-1);\n    }\n    \n    // Evidence\n    function uploadEvidence(uint _caseId, string memory _fileHash, string memory _fileType) onlyOwner public {\n        // to compare String without importing StringUtils Contract:\n        require(keccak256(bytes(_fileHash)) != keccak256(bytes(\"\")) && keccak256(bytes(_fileType)) != keccak256(bytes(\"\")));    //here checking string Not Null\n        cases[_caseId].evidenceFileHash.push(_fileHash);\n        cases[_caseId].evidenceFileType.push(_fileType);\n    }\n    \n    function getEvidenceCount(uint _caseId) public view returns(uint) {\n        return cases[_caseId].evidenceFileHash.length;\n    }\n    function getEvidence(uint _caseId, uint _evidenceNo) public view returns(string memory FileHash, string memory FileType) {\n        return (cases[_caseId].evidenceFileHash[_evidenceNo], cases[_caseId].evidenceFileType[_evidenceNo]);\n    }\n    \n    //Transcript\n    function uploadTranscript(uint _caseId, string memory _transcript) onlyOwner public {\n        cases[_caseId].transcripts.push(_transcript);\n    }\n    function getTranscriptsCount(uint _caseId) public view returns(uint) {\n        return cases[_caseId].transcripts.length;\n    }\n    function getTranscript(uint _caseId, uint _transcriptNo) public view returns(string memory) {\n        return cases[_caseId].transcripts[_transcriptNo];\n    }\n    \n    //EncryptedKeys\n    function addEncryptedKey(bool _isLawyer, uint _ljId, uint _caseId, string memory _key) public onlyOwner {\n        if(_isLawyer) {\n            lawyers[_ljId].encryptedKeys[_caseId] = _key;\n        } else {\n            judges[_ljId].encryptedKeys[_caseId] = _key;\n        }\n    }\n    function getEncryptedKey(bool _isLawyer, uint _ljId, uint _caseId) public view returns(string memory) {\n        if(_isLawyer) {\n            return lawyers[_ljId].encryptedKeys[_caseId];\n        } else {\n            return judges[_ljId].encryptedKeys[_caseId];\n        }\n    }\n    \n    constructor() public {\n        owner = msg.sender;\n    }\n}",
  "sourcePath": "D:/Coding/Blockchain/ethindia2/contracts/Court.sol",
  "compiler": {
    "name": "solc",
    "version": "0.5.8+commit.23d335f2.Emscripten.clang"
  },
  "schemaVersion": "3.0.16",
  "updatedAt": "2020-02-26T23:17:57.660Z",
  "devdoc": {
    "methods": {}
  },
  "userdoc": {
    "methods": {}
  }
}