{
  "contractName": "Court",
  "abi": [
    {
      "constant": true,
      "inputs": [],
      "name": "owner",
      "outputs": [
        {
          "name": "",
          "type": "address"
        }
      ],
      "payable": false,
      "stateMutability": "view",
      "type": "function"
    },
    {
      "constant": true,
      "inputs": [
        {
          "name": "",
          "type": "uint256"
        }
      ],
      "name": "lawyers",
      "outputs": [
        {
          "name": "name",
          "type": "string"
        },
        {
          "name": "phone",
          "type": "uint256"
        },
        {
          "name": "email",
          "type": "string"
        },
        {
          "name": "addr",
          "type": "address"
        },
        {
          "name": "pubkey",
          "type": "string"
        }
      ],
      "payable": false,
      "stateMutability": "view",
      "type": "function"
    },
    {
      "constant": true,
      "inputs": [
        {
          "name": "",
          "type": "uint256"
        }
      ],
      "name": "judges",
      "outputs": [
        {
          "name": "name",
          "type": "string"
        },
        {
          "name": "phone",
          "type": "uint256"
        },
        {
          "name": "email",
          "type": "string"
        },
        {
          "name": "addr",
          "type": "address"
        },
        {
          "name": "pubkey",
          "type": "string"
        }
      ],
      "payable": false,
      "stateMutability": "view",
      "type": "function"
    },
    {
      "constant": true,
      "inputs": [
        {
          "name": "",
          "type": "uint256"
        }
      ],
      "name": "cases",
      "outputs": [
        {
          "name": "judge",
          "type": "address"
        },
        {
          "name": "lawyer1",
          "type": "address"
        },
        {
          "name": "lawyer2",
          "type": "address"
        },
        {
          "name": "party_1_name",
          "type": "string"
        },
        {
          "name": "party_2_name",
          "type": "string"
        },
        {
          "name": "details",
          "type": "string"
        }
      ],
      "payable": false,
      "stateMutability": "view",
      "type": "function"
    },
    {
      "inputs": [],
      "payable": false,
      "stateMutability": "nonpayable",
      "type": "constructor"
    },
    {
      "anonymous": false,
      "inputs": [
        {
          "indexed": false,
          "name": "_lawyerId",
          "type": "uint256"
        }
      ],
      "name": "lawyerRegistered",
      "type": "event"
    },
    {
      "anonymous": false,
      "inputs": [
        {
          "indexed": false,
          "name": "_judgeId",
          "type": "uint256"
        }
      ],
      "name": "judgeRegistered",
      "type": "event"
    },
    {
      "anonymous": false,
      "inputs": [
        {
          "indexed": false,
          "name": "_caseId",
          "type": "uint256"
        }
      ],
      "name": "caseCreated",
      "type": "event"
    },
    {
      "constant": false,
      "inputs": [
        {
          "name": "_name",
          "type": "string"
        },
        {
          "name": "_phone",
          "type": "uint256"
        },
        {
          "name": "_email",
          "type": "string"
        },
        {
          "name": "_addr",
          "type": "address"
        },
        {
          "name": "_pubkey",
          "type": "string"
        }
      ],
      "name": "registerLawyer",
      "outputs": [],
      "payable": false,
      "stateMutability": "nonpayable",
      "type": "function"
    },
    {
      "constant": false,
      "inputs": [
        {
          "name": "_name",
          "type": "string"
        },
        {
          "name": "_phone",
          "type": "uint256"
        },
        {
          "name": "_email",
          "type": "string"
        },
        {
          "name": "_addr",
          "type": "address"
        },
        {
          "name": "_pubkey",
          "type": "string"
        }
      ],
      "name": "registerJudge",
      "outputs": [],
      "payable": false,
      "stateMutability": "nonpayable",
      "type": "function"
    },
    {
      "constant": false,
      "inputs": [
        {
          "name": "_judgeId",
          "type": "uint256"
        },
        {
          "name": "_lawyer1Id",
          "type": "uint256"
        },
        {
          "name": "_lawyer2Id",
          "type": "uint256"
        },
        {
          "name": "_party_1_name",
          "type": "string"
        },
        {
          "name": "_party_2_name",
          "type": "string"
        },
        {
          "name": "_details",
          "type": "string"
        }
      ],
      "name": "newCase",
      "outputs": [],
      "payable": false,
      "stateMutability": "nonpayable",
      "type": "function"
    },
    {
      "constant": false,
      "inputs": [
        {
          "name": "_caseId",
          "type": "uint256"
        },
        {
          "name": "_fileHash",
          "type": "string"
        },
        {
          "name": "_fileType",
          "type": "string"
        }
      ],
      "name": "uploadEvidence",
      "outputs": [],
      "payable": false,
      "stateMutability": "nonpayable",
      "type": "function"
    },
    {
      "constant": true,
      "inputs": [
        {
          "name": "_caseId",
          "type": "uint256"
        }
      ],
      "name": "getEvidenceCount",
      "outputs": [
        {
          "name": "",
          "type": "uint256"
        }
      ],
      "payable": false,
      "stateMutability": "view",
      "type": "function"
    },
    {
      "constant": true,
      "inputs": [
        {
          "name": "_caseId",
          "type": "uint256"
        },
        {
          "name": "_evidenceNo",
          "type": "uint256"
        }
      ],
      "name": "getEvidence",
      "outputs": [
        {
          "name": "FileHash",
          "type": "string"
        },
        {
          "name": "FileType",
          "type": "string"
        }
      ],
      "payable": false,
      "stateMutability": "view",
      "type": "function"
    },
    {
      "constant": false,
      "inputs": [
        {
          "name": "_caseId",
          "type": "uint256"
        },
        {
          "name": "_transcript",
          "type": "string"
        }
      ],
      "name": "uploadTranscript",
      "outputs": [],
      "payable": false,
      "stateMutability": "nonpayable",
      "type": "function"
    },
    {
      "constant": true,
      "inputs": [
        {
          "name": "_caseId",
          "type": "uint256"
        }
      ],
      "name": "getTranscriptsCount",
      "outputs": [
        {
          "name": "",
          "type": "uint256"
        }
      ],
      "payable": false,
      "stateMutability": "view",
      "type": "function"
    },
    {
      "constant": true,
      "inputs": [
        {
          "name": "_caseId",
          "type": "uint256"
        },
        {
          "name": "_transcriptNo",
          "type": "uint256"
        }
      ],
      "name": "getTranscript",
      "outputs": [
        {
          "name": "",
          "type": "string"
        }
      ],
      "payable": false,
      "stateMutability": "view",
      "type": "function"
    },
    {
      "constant": false,
      "inputs": [
        {
          "name": "_isLawyer",
          "type": "bool"
        },
        {
          "name": "_ljId",
          "type": "uint256"
        },
        {
          "name": "_caseId",
          "type": "uint256"
        },
        {
          "name": "_key",
          "type": "string"
        }
      ],
      "name": "addEncryptedKey",
      "outputs": [],
      "payable": false,
      "stateMutability": "nonpayable",
      "type": "function"
    },
    {
      "constant": true,
      "inputs": [
        {
          "name": "_isLawyer",
          "type": "bool"
        },
        {
          "name": "_ljId",
          "type": "uint256"
        },
        {
          "name": "_caseId",
          "type": "uint256"
        }
      ],
      "name": "getEncryptedKey",
      "outputs": [
        {
          "name": "",
          "type": "string"
        }
      ],
      "payable": false,
      "stateMutability": "view",
      "type": "function"
    },
    {
      "constant": true,
      "inputs": [
        {
          "name": "_caseId",
          "type": "uint256"
        }
      ],
      "name": "getCaseAddresses",
      "outputs": [
        {
          "name": "judge",
          "type": "address"
        },
        {
          "name": "lawyer1",
          "type": "address"
        },
        {
          "name": "lawyer2",
          "type": "address"
        }
      ],
      "payable": false,
      "stateMutability": "view",
      "type": "function"
    }
  ],
  "bytecode": "0x608060405234801561001057600080fd5b50336000806101000a81548173ffffffffffffffffffffffffffffffffffffffff021916908373ffffffffffffffffffffffffffffffffffffffff160217905550612cdc806100606000396000f3fe608060405234801561001057600080fd5b50600436106101005760003560e01c8063a33bf6d211610097578063d7bda86111610066578063d7bda86114610c96578063f09790dd14610ea9578063f1b8a98c146110c1578063f343d446146111de57610100565b8063a33bf6d21461064c578063a6d47c1914610805578063b06b036814610a18578063cc5f456214610bd157610100565b80638da5cb5b116100d35780638da5cb5b146104525780638fa1f8d41461049c578063991d7e5b146105595780639d7a05c61461059b57610100565b8063423aee311461010557806356993cac146101475780635b2647c61461021b5780636b27cc0f14610377575b600080fd5b6101316004803603602081101561011b57600080fd5b81019080803590602001909291905050506113e5565b6040518082815260200191505060405180910390f35b6101736004803603602081101561015d57600080fd5b8101908080359060200190929190505050611410565b604051808473ffffffffffffffffffffffffffffffffffffffff1673ffffffffffffffffffffffffffffffffffffffff1681526020018373ffffffffffffffffffffffffffffffffffffffff1673ffffffffffffffffffffffffffffffffffffffff1681526020018273ffffffffffffffffffffffffffffffffffffffff1673ffffffffffffffffffffffffffffffffffffffff168152602001935050505060405180910390f35b6103756004803603606081101561023157600080fd5b81019080803590602001909291908035906020019064010000000081111561025857600080fd5b82018360208201111561026a57600080fd5b8035906020019184600183028401116401000000008311171561028c57600080fd5b91908080601f016020809104026020016040519081016040528093929190818152602001838380828437600081840152601f19601f820116905080830192505050505050509192919290803590602001906401000000008111156102ef57600080fd5b82018360208201111561030157600080fd5b8035906020019184600183028401116401000000008311171561032357600080fd5b91908080601f016020809104026020016040519081016040528093929190818152602001838380828437600081840152601f19601f8201169050808301925050505050505091929192905050506114df565b005b6104506004803603608081101561038d57600080fd5b810190808035151590602001909291908035906020019092919080359060200190929190803590602001906401000000008111156103ca57600080fd5b8201836020820111156103dc57600080fd5b803590602001918460018302840111640100000000831117156103fe57600080fd5b91908080601f016020809104026020016040519081016040528093929190818152602001838380828437600081840152601f19601f820116905080830192505050505050509192919290505050611646565b005b61045a611739565b604051808273ffffffffffffffffffffffffffffffffffffffff1673ffffffffffffffffffffffffffffffffffffffff16815260200191505060405180910390f35b6104de600480360360608110156104b257600080fd5b81019080803515159060200190929190803590602001909291908035906020019092919050505061175e565b6040518080602001828103825283818151815260200191508051906020019080838360005b8381101561051e578082015181840152602081019050610503565b50505050905090810190601f16801561054b5780820380516001836020036101000a031916815260200191505b509250505060405180910390f35b6105856004803603602081101561056f57600080fd5b8101908080359060200190929190505050611907565b6040518082815260200191505060405180910390f35b6105d1600480360360408110156105b157600080fd5b810190808035906020019092919080359060200190929190505050611932565b6040518080602001828103825283818151815260200191508051906020019080838360005b838110156106115780820151818401526020810190506105f6565b50505050905090810190601f16801561063e5780820380516001836020036101000a031916815260200191505b509250505060405180910390f35b6106786004803603602081101561066257600080fd5b8101908080359060200190929190505050611a08565b6040518080602001868152602001806020018573ffffffffffffffffffffffffffffffffffffffff1673ffffffffffffffffffffffffffffffffffffffff16815260200180602001848103845289818151815260200191508051906020019080838360005b838110156106f85780820151818401526020810190506106dd565b50505050905090810190601f1680156107255780820380516001836020036101000a031916815260200191505b50848103835287818151815260200191508051906020019080838360005b8381101561075e578082015181840152602081019050610743565b50505050905090810190601f16801561078b5780820380516001836020036101000a031916815260200191505b50848103825285818151815260200191508051906020019080838360005b838110156107c45780820151818401526020810190506107a9565b50505050905090810190601f1680156107f15780820380516001836020036101000a031916815260200191505b509850505050505050505060405180910390f35b610a16600480360360a081101561081b57600080fd5b810190808035906020019064010000000081111561083857600080fd5b82018360208201111561084a57600080fd5b8035906020019184600183028401116401000000008311171561086c57600080fd5b91908080601f016020809104026020016040519081016040528093929190818152602001838380828437600081840152601f19601f82011690508083019250505050505050919291929080359060200190929190803590602001906401000000008111156108d957600080fd5b8201836020820111156108eb57600080fd5b8035906020019184600183028401116401000000008311171561090d57600080fd5b91908080601f016020809104026020016040519081016040528093929190818152602001838380828437600081840152601f19601f820116905080830192505050505050509192919290803573ffffffffffffffffffffffffffffffffffffffff1690602001909291908035906020019064010000000081111561099057600080fd5b8201836020820111156109a257600080fd5b803590602001918460018302840111640100000000831117156109c457600080fd5b91908080601f016020809104026020016040519081016040528093929190818152602001838380828437600081840152601f19601f820116905080830192505050505050509192919290505050611c33565b005b610a4460048036036020811015610a2e57600080fd5b8101908080359060200190929190505050611d99565b6040518080602001868152602001806020018573ffffffffffffffffffffffffffffffffffffffff1673ffffffffffffffffffffffffffffffffffffffff16815260200180602001848103845289818151815260200191508051906020019080838360005b83811015610ac4578082015181840152602081019050610aa9565b50505050905090810190601f168015610af15780820380516001836020036101000a031916815260200191505b50848103835287818151815260200191508051906020019080838360005b83811015610b2a578082015181840152602081019050610b0f565b50505050905090810190601f168015610b575780820380516001836020036101000a031916815260200191505b50848103825285818151815260200191508051906020019080838360005b83811015610b90578082015181840152602081019050610b75565b50505050905090810190601f168015610bbd5780820380516001836020036101000a031916815260200191505b509850505050505050505060405180910390f35b610c9460048036036040811015610be757600080fd5b810190808035906020019092919080359060200190640100000000811115610c0e57600080fd5b820183602082011115610c2057600080fd5b80359060200191846001830284011164010000000083111715610c4257600080fd5b91908080601f016020809104026020016040519081016040528093929190818152602001838380828437600081840152601f19601f820116905080830192505050505050509192919290505050611fc4565b005b610ea7600480360360a0811015610cac57600080fd5b8101908080359060200190640100000000811115610cc957600080fd5b820183602082011115610cdb57600080fd5b80359060200191846001830284011164010000000083111715610cfd57600080fd5b91908080601f016020809104026020016040519081016040528093929190818152602001838380828437600081840152601f19601f8201169050808301925050505050505091929192908035906020019092919080359060200190640100000000811115610d6a57600080fd5b820183602082011115610d7c57600080fd5b80359060200191846001830284011164010000000083111715610d9e57600080fd5b91908080601f016020809104026020016040519081016040528093929190818152602001838380828437600081840152601f19601f820116905080830192505050505050509192919290803573ffffffffffffffffffffffffffffffffffffffff16906020019092919080359060200190640100000000811115610e2157600080fd5b820183602082011115610e3357600080fd5b80359060200191846001830284011164010000000083111715610e5557600080fd5b91908080601f016020809104026020016040519081016040528093929190818152602001838380828437600081840152601f19601f82011690508083019250505050505050919291929050505061207c565b005b610ed560048036036020811015610ebf57600080fd5b81019080803590602001909291905050506121e3565b604051808773ffffffffffffffffffffffffffffffffffffffff1673ffffffffffffffffffffffffffffffffffffffff1681526020018673ffffffffffffffffffffffffffffffffffffffff1673ffffffffffffffffffffffffffffffffffffffff1681526020018573ffffffffffffffffffffffffffffffffffffffff1673ffffffffffffffffffffffffffffffffffffffff168152602001806020018060200180602001848103845287818151815260200191508051906020019080838360005b83811015610fb3578082015181840152602081019050610f98565b50505050905090810190601f168015610fe05780820380516001836020036101000a031916815260200191505b50848103835286818151815260200191508051906020019080838360005b83811015611019578082015181840152602081019050610ffe565b50505050905090810190601f1680156110465780820380516001836020036101000a031916815260200191505b50848103825285818151815260200191508051906020019080838360005b8381101561107f578082015181840152602081019050611064565b50505050905090810190601f1680156110ac5780820380516001836020036101000a031916815260200191505b50995050505050505050505060405180910390f35b6110f7600480360360408110156110d757600080fd5b810190808035906020019092919080359060200190929190505050612454565b604051808060200180602001838103835285818151815260200191508051906020019080838360005b8381101561113b578082015181840152602081019050611120565b50505050905090810190601f1680156111685780820380516001836020036101000a031916815260200191505b50838103825284818151815260200191508051906020019080838360005b838110156111a1578082015181840152602081019050611186565b50505050905090810190601f1680156111ce5780820380516001836020036101000a031916815260200191505b5094505050505060405180910390f35b6113e3600480360360c08110156111f457600080fd5b810190808035906020019092919080359060200190929190803590602001909291908035906020019064010000000081111561122f57600080fd5b82018360208201111561124157600080fd5b8035906020019184600183028401116401000000008311171561126357600080fd5b91908080601f016020809104026020016040519081016040528093929190818152602001838380828437600081840152601f19601f820116905080830192505050505050509192919290803590602001906401000000008111156112c657600080fd5b8201836020820111156112d857600080fd5b803590602001918460018302840111640100000000831117156112fa57600080fd5b91908080601f016020809104026020016040519081016040528093929190818152602001838380828437600081840152601f19601f8201169050808301925050505050505091929192908035906020019064010000000081111561135d57600080fd5b82018360208201111561136f57600080fd5b8035906020019184600183028401116401000000008311171561139157600080fd5b91908080601f016020809104026020016040519081016040528093929190818152602001838380828437600081840152601f19601f820116905080830192505050505050509192919290505050612600565b005b6000600382815481106113f457fe5b9060005260206000209060090201600301805490509050919050565b60008060006003848154811061142257fe5b906000526020600020906009020160000160009054906101000a900473ffffffffffffffffffffffffffffffffffffffff166003858154811061146157fe5b906000526020600020906009020160010160009054906101000a900473ffffffffffffffffffffffffffffffffffffffff16600386815481106114a057fe5b906000526020600020906009020160020160009054906101000a900473ffffffffffffffffffffffffffffffffffffffff169250925092509193909250565b6000809054906101000a900473ffffffffffffffffffffffffffffffffffffffff1673ffffffffffffffffffffffffffffffffffffffff163373ffffffffffffffffffffffffffffffffffffffff161461153857600080fd5b604051806020016040528060008152508051906020012082805190602001201415801561158257506040518060200160405280600081525080519060200120818051906020012014155b61158b57600080fd5b6003838154811061159857fe5b90600052602060002090600902016003018290806001815401808255809150509060018203906000526020600020016000909192909190915090805190602001906115e492919061299f565b5050600383815481106115f357fe5b906000526020600020906009020160040181908060018154018082558091505090600182039060005260206000200160009091929091909150908051906020019061163f92919061299f565b5050505050565b6000809054906101000a900473ffffffffffffffffffffffffffffffffffffffff1673ffffffffffffffffffffffffffffffffffffffff163373ffffffffffffffffffffffffffffffffffffffff161461169f57600080fd5b83156116ee5780600184815481106116b357fe5b9060005260206000209060060201600501600084815260200190815260200160002090805190602001906116e892919061299f565b50611733565b80600284815481106116fc57fe5b90600052602060002090600602016005016000848152602001908152602001600020908051906020019061173192919061299f565b505b50505050565b6000809054906101000a900473ffffffffffffffffffffffffffffffffffffffff1681565b60608315611835576001838154811061177357fe5b906000526020600020906006020160050160008381526020019081526020016000208054600181600116156101000203166002900480601f0160208091040260200160405190810160405280929190818152602001828054600181600116156101000203166002900480156118295780601f106117fe57610100808354040283529160200191611829565b820191906000526020600020905b81548152906001019060200180831161180c57829003601f168201915b50505050509050611900565b6002838154811061184257fe5b906000526020600020906006020160050160008381526020019081526020016000208054600181600116156101000203166002900480601f0160208091040260200160405190810160405280929190818152602001828054600181600116156101000203166002900480156118f85780601f106118cd576101008083540402835291602001916118f8565b820191906000526020600020905b8154815290600101906020018083116118db57829003601f168201915b505050505090505b9392505050565b60006003828154811061191657fe5b9060005260206000209060090201600801805490509050919050565b60606003838154811061194157fe5b9060005260206000209060090201600801828154811061195d57fe5b906000526020600020018054600181600116156101000203166002900480601f0160208091040260200160405190810160405280929190818152602001828054600181600116156101000203166002900480156119fb5780601f106119d0576101008083540402835291602001916119fb565b820191906000526020600020905b8154815290600101906020018083116119de57829003601f168201915b5050505050905092915050565b60018181548110611a1557fe5b9060005260206000209060060201600091509050806000018054600181600116156101000203166002900480601f016020809104026020016040519081016040528092919081815260200182805460018160011615610100020316600290048015611ac15780601f10611a9657610100808354040283529160200191611ac1565b820191906000526020600020905b815481529060010190602001808311611aa457829003601f168201915b505050505090806001015490806002018054600181600116156101000203166002900480601f016020809104026020016040519081016040528092919081815260200182805460018160011615610100020316600290048015611b655780601f10611b3a57610100808354040283529160200191611b65565b820191906000526020600020905b815481529060010190602001808311611b4857829003601f168201915b5050505050908060030160009054906101000a900473ffffffffffffffffffffffffffffffffffffffff1690806004018054600181600116156101000203166002900480601f016020809104026020016040519081016040528092919081815260200182805460018160011615610100020316600290048015611c295780601f10611bfe57610100808354040283529160200191611c29565b820191906000526020600020905b815481529060010190602001808311611c0c57829003601f168201915b5050505050905085565b611c3b612a1f565b6040518060a001604052808781526020018681526020018581526020018473ffffffffffffffffffffffffffffffffffffffff168152602001838152509050600181908060018154018082558091505090600182039060005260206000209060060201600090919290919091506000820151816000019080519060200190611cc4929190612a64565b50602082015181600101556040820151816002019080519060200190611ceb929190612a64565b5060608201518160030160006101000a81548173ffffffffffffffffffffffffffffffffffffffff021916908373ffffffffffffffffffffffffffffffffffffffff1602179055506080820151816004019080519060200190611d4f929190612a64565b505050507fd27034f23f8291ab86ab3da722bb1ce4ddfe94c2f69c7e91d98ff4c57b420ede60018080549050036040518082815260200191505060405180910390a1505050505050565b60028181548110611da657fe5b9060005260206000209060060201600091509050806000018054600181600116156101000203166002900480601f016020809104026020016040519081016040528092919081815260200182805460018160011615610100020316600290048015611e525780601f10611e2757610100808354040283529160200191611e52565b820191906000526020600020905b815481529060010190602001808311611e3557829003601f168201915b505050505090806001015490806002018054600181600116156101000203166002900480601f016020809104026020016040519081016040528092919081815260200182805460018160011615610100020316600290048015611ef65780601f10611ecb57610100808354040283529160200191611ef6565b820191906000526020600020905b815481529060010190602001808311611ed957829003601f168201915b5050505050908060030160009054906101000a900473ffffffffffffffffffffffffffffffffffffffff1690806004018054600181600116156101000203166002900480601f016020809104026020016040519081016040528092919081815260200182805460018160011615610100020316600290048015611fba5780601f10611f8f57610100808354040283529160200191611fba565b820191906000526020600020905b815481529060010190602001808311611f9d57829003601f168201915b5050505050905085565b6000809054906101000a900473ffffffffffffffffffffffffffffffffffffffff1673ffffffffffffffffffffffffffffffffffffffff163373ffffffffffffffffffffffffffffffffffffffff161461201d57600080fd5b6003828154811061202a57fe5b906000526020600020906009020160080181908060018154018082558091505090600182039060005260206000200160009091929091909150908051906020019061207692919061299f565b50505050565b612084612ae4565b6040518060a001604052808781526020018681526020018581526020018473ffffffffffffffffffffffffffffffffffffffff16815260200183815250905060028190806001815401808255809150509060018203906000526020600020906006020160009091929091909150600082015181600001908051906020019061210d929190612a64565b50602082015181600101556040820151816002019080519060200190612134929190612a64565b5060608201518160030160006101000a81548173ffffffffffffffffffffffffffffffffffffffff021916908373ffffffffffffffffffffffffffffffffffffffff1602179055506080820151816004019080519060200190612198929190612a64565b505050507f84d938253a09f6f1c18877f03794c04e160d67d7ec43ef4aa6de4dd0db9720dc6001600280549050036040518082815260200191505060405180910390a1505050505050565b600381815481106121f057fe5b90600052602060002090600902016000915090508060000160009054906101000a900473ffffffffffffffffffffffffffffffffffffffff16908060010160009054906101000a900473ffffffffffffffffffffffffffffffffffffffff16908060020160009054906101000a900473ffffffffffffffffffffffffffffffffffffffff1690806005018054600181600116156101000203166002900480601f01602080910402602001604051908101604052809291908181526020018280546001816001161561010002031660029004801561230e5780601f106122e35761010080835404028352916020019161230e565b820191906000526020600020905b8154815290600101906020018083116122f157829003601f168201915b505050505090806006018054600181600116156101000203166002900480601f0160208091040260200160405190810160405280929190818152602001828054600181600116156101000203166002900480156123ac5780601f10612381576101008083540402835291602001916123ac565b820191906000526020600020905b81548152906001019060200180831161238f57829003601f168201915b505050505090806007018054600181600116156101000203166002900480601f01602080910402602001604051908101604052809291908181526020018280546001816001161561010002031660029004801561244a5780601f1061241f5761010080835404028352916020019161244a565b820191906000526020600020905b81548152906001019060200180831161242d57829003601f168201915b5050505050905086565b6060806003848154811061246457fe5b9060005260206000209060090201600301838154811061248057fe5b906000526020600020016003858154811061249757fe5b906000526020600020906009020160040184815481106124b357fe5b90600052602060002001818054600181600116156101000203166002900480601f0160208091040260200160405190810160405280929190818152602001828054600181600116156101000203166002900480156125525780601f1061252757610100808354040283529160200191612552565b820191906000526020600020905b81548152906001019060200180831161253557829003601f168201915b50505050509150808054600181600116156101000203166002900480601f0160208091040260200160405190810160405280929190818152602001828054600181600116156101000203166002900480156125ee5780601f106125c3576101008083540402835291602001916125ee565b820191906000526020600020905b8154815290600101906020018083116125d157829003601f168201915b50505050509050915091509250929050565b6000809054906101000a900473ffffffffffffffffffffffffffffffffffffffff1673ffffffffffffffffffffffffffffffffffffffff163373ffffffffffffffffffffffffffffffffffffffff161461265957600080fd5b6060612663612b29565b60405180610120016040528060028a8154811061267c57fe5b906000526020600020906006020160030160009054906101000a900473ffffffffffffffffffffffffffffffffffffffff1673ffffffffffffffffffffffffffffffffffffffff168152602001600189815481106126d657fe5b906000526020600020906006020160030160009054906101000a900473ffffffffffffffffffffffffffffffffffffffff1673ffffffffffffffffffffffffffffffffffffffff1681526020016001888154811061273057fe5b906000526020600020906006020160030160009054906101000a900473ffffffffffffffffffffffffffffffffffffffff1673ffffffffffffffffffffffffffffffffffffffff1681526020018381526020018381526020018681526020018581526020018481526020018381525090506003819080600181540180825580915050906001820390600052602060002090600902016000909192909190915060008201518160000160006101000a81548173ffffffffffffffffffffffffffffffffffffffff021916908373ffffffffffffffffffffffffffffffffffffffff16021790555060208201518160010160006101000a81548173ffffffffffffffffffffffffffffffffffffffff021916908373ffffffffffffffffffffffffffffffffffffffff16021790555060408201518160020160006101000a81548173ffffffffffffffffffffffffffffffffffffffff021916908373ffffffffffffffffffffffffffffffffffffffff16021790555060608201518160030190805190602001906128c0929190612bb7565b5060808201518160040190805190602001906128dd929190612bb7565b5060a08201518160050190805190602001906128fa929190612a64565b5060c0820151816006019080519060200190612917929190612a64565b5060e0820151816007019080519060200190612934929190612a64565b50610100820151816008019080519060200190612952929190612bb7565b505050507fca0f0263e10a85892496523b99b9450d1d6e40cbce860b150a7bbf062fbd4e406001600380549050036040518082815260200191505060405180910390a15050505050505050565b828054600181600116156101000203166002900490600052602060002090601f016020900481019282601f106129e057805160ff1916838001178555612a0e565b82800160010185558215612a0e579182015b82811115612a0d5782518255916020019190600101906129f2565b5b509050612a1b9190612c17565b5090565b6040518060a00160405280606081526020016000815260200160608152602001600073ffffffffffffffffffffffffffffffffffffffff168152602001606081525090565b828054600181600116156101000203166002900490600052602060002090601f016020900481019282601f10612aa557805160ff1916838001178555612ad3565b82800160010185558215612ad3579182015b82811115612ad2578251825591602001919060010190612ab7565b5b509050612ae09190612c17565b5090565b6040518060a00160405280606081526020016000815260200160608152602001600073ffffffffffffffffffffffffffffffffffffffff168152602001606081525090565b604051806101200160405280600073ffffffffffffffffffffffffffffffffffffffff168152602001600073ffffffffffffffffffffffffffffffffffffffff168152602001600073ffffffffffffffffffffffffffffffffffffffff1681526020016060815260200160608152602001606081526020016060815260200160608152602001606081525090565b828054828255906000526020600020908101928215612c06579160200282015b82811115612c05578251829080519060200190612bf5929190612a64565b5091602001919060010190612bd7565b5b509050612c139190612c3c565b5090565b612c3991905b80821115612c35576000816000905550600101612c1d565b5090565b90565b612c6591905b80821115612c615760008181612c589190612c68565b50600101612c42565b5090565b90565b50805460018160011615610100020316600290046000825580601f10612c8e5750612cad565b601f016020900490600052602060002090810190612cac9190612c17565b5b5056fea165627a7a72305820a238cd3d9bf4ba5cd1b3d57b85ed16e39536af56bc2c88d59669c59c6025ba960029",
  "source": "pragma solidity ^0.5.0;\r\n\r\ncontract Court {\r\n    address public owner;\r\n    modifier onlyOwner() {\r\n        if (msg.sender != owner) {\r\n            revert();\r\n        }\r\n        _;\r\n    }\r\n    \r\n    struct Lawyer {\r\n        string name;\r\n        uint phone;\r\n        string email;\r\n        address addr;\r\n        string pubkey;\r\n        mapping(uint => string) encryptedKeys;     //for each case\r\n    }\r\n    \r\n    struct Judge {\r\n        string name;\r\n        uint phone;\r\n        string email;\r\n        address addr;\r\n        string pubkey;\r\n        mapping(uint => string) encryptedKeys;\r\n    }\r\n    \r\n    Lawyer[] public lawyers;\r\n    Judge[] public judges;\r\n    \r\n    struct Case {\r\n        address judge;\r\n        address lawyer1;\r\n        address lawyer2;\r\n        string[] evidenceFileHash;\r\n        string[] evidenceFileType;\r\n        \r\n        string party_1_name;\r\n        string party_2_name;\r\n        string details;\r\n        string[] transcripts;\r\n    }\r\n    \r\n    Case[] public cases;\r\n    \r\n    event lawyerRegistered(uint _lawyerId);\r\n    event judgeRegistered(uint _judgeId);\r\n    event caseCreated(uint _caseId);\r\n    \r\n    function registerLawyer(string memory _name, uint _phone, string memory _email, address _addr, string memory _pubkey) public {\r\n        Lawyer memory l = Lawyer(_name, _phone, _email, _addr, _pubkey);\r\n        lawyers.push(l);\r\n        emit lawyerRegistered(lawyers.length-1);\r\n    }\r\n    function registerJudge(string memory _name, uint _phone, string memory _email, address _addr, string memory _pubkey) public {\r\n        Judge memory j = Judge(_name, _phone, _email, _addr, _pubkey);\r\n        judges.push(j);\r\n        emit judgeRegistered(judges.length-1);\r\n    }\r\n    \r\n    function newCase(uint _judgeId, uint _lawyer1Id, uint _lawyer2Id, string memory _party_1_name, string memory _party_2_name, string memory _details) public onlyOwner {\r\n        string[] memory empty;\r\n        Case memory tcase = Case(judges[_judgeId].addr, lawyers[_lawyer1Id].addr, lawyers[_lawyer2Id].addr, empty, empty, _party_1_name, _party_2_name, _details, empty);\r\n        cases.push(tcase);\r\n        \r\n        emit caseCreated(cases.length-1);\r\n    }\r\n    \r\n    // Evidence\r\n    function uploadEvidence(uint _caseId, string memory _fileHash, string memory _fileType) onlyOwner public {\r\n        // to compare String without importing StringUtils Contract:\r\n        require(keccak256(bytes(_fileHash)) != keccak256(bytes(\"\")) && keccak256(bytes(_fileType)) != keccak256(bytes(\"\")));    //here checking string Not Null\r\n        cases[_caseId].evidenceFileHash.push(_fileHash);\r\n        cases[_caseId].evidenceFileType.push(_fileType);\r\n    }\r\n    \r\n    function getEvidenceCount(uint _caseId) public view returns(uint) {\r\n        return cases[_caseId].evidenceFileHash.length;\r\n    }\r\n    function getEvidence(uint _caseId, uint _evidenceNo) public view returns(string memory FileHash, string memory FileType) {\r\n        return (cases[_caseId].evidenceFileHash[_evidenceNo], cases[_caseId].evidenceFileType[_evidenceNo]);\r\n    }\r\n    \r\n    //Transcript\r\n    function uploadTranscript(uint _caseId, string memory _transcript) onlyOwner public {\r\n        cases[_caseId].transcripts.push(_transcript);\r\n    }\r\n    function getTranscriptsCount(uint _caseId) public view returns(uint) {\r\n        return cases[_caseId].transcripts.length;\r\n    }\r\n    function getTranscript(uint _caseId, uint _transcriptNo) public view returns(string memory) {\r\n        return cases[_caseId].transcripts[_transcriptNo];\r\n    }\r\n    \r\n    //EncryptedKeys\r\n    function addEncryptedKey(bool _isLawyer, uint _ljId, uint _caseId, string memory _key) public onlyOwner {\r\n        if(_isLawyer) {\r\n            lawyers[_ljId].encryptedKeys[_caseId] = _key;\r\n        } else {\r\n            judges[_ljId].encryptedKeys[_caseId] = _key;\r\n        }\r\n    }\r\n    function getEncryptedKey(bool _isLawyer, uint _ljId, uint _caseId) public view returns(string memory) {\r\n        if(_isLawyer) {\r\n            return lawyers[_ljId].encryptedKeys[_caseId];\r\n        } else {\r\n            return judges[_ljId].encryptedKeys[_caseId];\r\n        }\r\n    }\r\n    \r\n    function getCaseAddresses(uint _caseId) public view returns(address judge, address lawyer1, address lawyer2) {\r\n        return(cases[_caseId].judge, cases[_caseId].lawyer1, cases[_caseId].lawyer2);\r\n    }\r\n    \r\n    constructor() public {\r\n        owner = msg.sender;\r\n    }\r\n}",
  "sourcePath": "D:/Coding/Blockchain/ethindia2/contracts/Court.sol",
  "compiler": {
    "name": "solc",
    "version": "0.5.8+commit.23d335f2.Emscripten.clang"
  },
  "schemaVersion": "3.0.16",
  "updatedAt": "2020-02-29T14:07:33.667Z",
  "devdoc": {
    "methods": {}
  },
  "userdoc": {
    "methods": {}
  }
}